:020000040800F2
:1000000000000220FD090008450A0008ED810008F3
:10001000450A0008450A0008450A000800000000DB
:10002000000000000000000000000000450A000879
:10003000450A000800000000450A00087181000818
:10004000450A0008450A0008450A0008450A000854
:10005000450A0008450A0008450A0008450A000844
:10006000450A0008450A0008450A0008C979000841
:10007000D5790008DD660008E1790008ED7900080F
:10008000A1290108A96E0008450A0008450A0008D0
:10009000450A0008450A0008450A0008450A000804
:1000A000450A0008450A0008450A0008450A0008F4
:1000B000E17F0008ED7F0008F97F0008DD6E000891
:1000C000450A0008E96E0008450A0008A919010858
:1000D000B5190108D52701080128010835280108AC
:1000E000450A0008450A000800000000450A00080B
:1000F000450A0008450A0008450A0008450A0008A4
:10010000450A0008450A000805800008C1190108D1
:10011000692801089D280108450A0008450A0008C9
:10012000450A0008450A0008E5190108191A0108DE
:10013000D5290108450A0008450A0008450A0008B3
:1001400000000000000000000000000000000000AF
:10015000450A0008450A0008450A0008D128010898
:10016000F56E0008450A000881810008A581000895
:10017000450A0008C9810008450A0008450A000828
:10018000450A0008450A000805290108392901081F
:10019000CD190108D9190108450A0008450A0008C7
:1001A000450A0008450A0008450A0008450A0008F3
:1001B000E9760008450A0008450A0008450A0008D3
:1001C000450A0008450A0008916100089D61000881
:1001D000450A0008A9610008450A0008450A000808
:1001E000450A0008450A0008450A0008450A0008B3
:1001F000450A0008450A0008450A0008450A0008A3
:10020000450A0008450A0008450A0008450A000892
:10021000450A0008450A0008450A0008450A000882
:10022000450A0008450A0008450A000800000000C9
:10023000450A0008450A000800000000450A0008B9
:10024000450A0008450A0008450A0008450A000852
:10025000450A0008450A0008450A0008450A000842
:10026000450A0008450A0008450A0008450A000832
:10027000450A0008450A00086D2901080000000031
:10028000450A0008450A0008450A00080000000069
:0802900000000000450A00080F
:1002A00010B5054C237833B9044B13B10448AFF3B0
:1002B00000800123237010BDF8030024000000001B
:1002C000ECAE010808B5034B1BB103490348AFF37B
:1002D000008008BD00000000FC030024ECAE010813
:1002E00001F0FF01102A2BDB10F0070F08D010F8E7
:1002F000013B013A8B422DD010F0070F42B3F6D1EB
:10030000F0B441EA012141EA014122F007047FF003
:1003100000070023F0E80256083C85EA010586EA5A
:10032000010685FA47F5A3FA87F586FA47F6A5FA96
:1003300087F68EB9EED1F0BC01F0FF0102F00702A2
:1003400032B110F8013B013A83EA010313B1F8D14D
:100350000020704701387047002D06BF354603382E
:10036000073815F0010F07D1013015F4807F02BF67
:10037000013015F4C03F0130F0BC0138704700BFB8
:1003800081F0004102E000BF83F0004330B54FEA46
:1003900041044FEA430594EA050F08BF90EA020FB3
:1003A0001FBF54EA000C55EA020C7FEA645C7FEA46
:1003B000655C00F0E2804FEA5454D4EB5555B8BF69
:1003C0006D420CDD2C4480EA020281EA030382EADA
:1003D000000083EA010180EA020281EA0303362D6C
:1003E00088BF30BD11F0004F4FEA01314FF4801C3F
:1003F0004CEA113102D0404261EB410113F0004F51
:100400004FEA03334CEA133302D0524263EB430307
:1004100094EA050F00F0A780A4F10104D5F1200EA5
:100420000DDB02FA0EFC22FA05F2801841F1000100
:1004300003FA0EF2801843FA05F359410EE0A5F1D4
:1004400020050EF1200E012A03FA0EFC28BF4CF005
:10045000020C43FA05F3C01851EBE37101F00045BB
:1004600007D54FF0000EDCF1000C7EEB00006EEBC8
:100470000101B1F5801F1BD3B1F5001F0CD3490852
:100480005FEA30004FEA3C0C04F101044FEA4452A9
:1004900012F5800F80F09A80BCF1004F08BF5FEA30
:1004A000500C50F1000041EB045141EA050130BD10
:1004B0005FEA4C0C404141EB0101013C28BFB1F522
:1004C000801FE9D291F0000F04BF01460020B1FA6D
:1004D00081F308BF2033A3F10B03B3F120020CDA40
:1004E0000C3208DD02F1140CC2F10C0201FA0CF01E
:1004F00021FA02F10CE002F11402D8BFC2F1200C83
:1005000001FA02F120FA0CFCDCBF41EA0C01904038
:10051000E41AA2BF01EB0451294330BD6FEA040481
:100520001F3C1CDA0C340EDC04F11404C4F120026C
:1005300020FA04F001FA02F340EA030021FA04F37E
:1005400045EA030130BDC4F10C04C4F1200220FAD5
:1005500002F001FA04F340EA0300294630BD21FA13
:1005600004F0294630BD94F0000F83F4801306BFD9
:1005700081F480110134013D4EE77FEA645C18BFCD
:100580007FEA655C29D094EA050F08BF90EA020F64
:1005900005D054EA000C04BF1946104630BD91EA5C
:1005A000030F1EBF0021002030BD5FEA545C05D15F
:1005B0004000494128BF41F0004130BD14F580049E
:1005C0003CBF01F5801130BD01F0004545F0FE4112
:1005D00041F470014FF0000030BD7FEA645C1ABF47
:1005E000194610467FEA655C1CBF0B46024650EA7E
:1005F000013406BF52EA033591EA030F41F40021AA
:1006000030BD00BF90F0000F04BF0021704730B52F
:100610004FF4806404F132044FF000054FF0000104
:1006200050E700BF90F0000F04BF0021704730B5C5
:100630004FF4806404F1320410F0004548BF40429A
:100640004FF000013EE700BF42004FEAE2014FEAEF
:1006500031014FEA02701FBF12F07F4393F07F4FCA
:1006600081F06051704732F07F4208BF704793F0CD
:100670007F4F04BF41F40021704730B54FF46074E0
:1006800001F0004521F000411CE700BF50EA0102E3
:1006900008BF704730B54FF000050AE050EA01028C
:1006A00008BF704730B511F0004502D5404261EBFC
:1006B00041014FF4806404F132045FEA915C3FF43D
:1006C000D8AE4FF003025FEADC0C18BF03325FEADA
:1006D000DC0C18BF033202EBDC02C2F1200300FA8B
:1006E00003FC20FA02F001FA03FE40EA0E0021FAB0
:1006F00002F11444BDE600BF53B94AB9002908BF4E
:1007000000281CBF4FF0FF314FF0FF3000F074B9EC
:10071000ADF1080C6DE904CE00F006F8DDF804E058
:10072000DDE9022304B070472DE9F047089D044637
:100730008E46002B4DD18A42944669D9B2FA82F294
:1007400052B101FA02F3C2F1200120FA01F10CFAD0
:1007500002FC41EA030E94404FEA1C48210CBEFB08
:10076000F8F61FFA8CF708FB16E341EA034306FB91
:1007700007F199420AD91CEB030306F1FF3080F020
:100780001F81994240F21C81023E63445B1AA4B26D
:10079000B3FBF8F008FB103344EA034400FB07F70F
:1007A000A7420AD91CEB040400F1FF3380F00A8150
:1007B000A74240F207816444023840EA0640E41B45
:1007C00000261DB1D4400023C5E900433146BDE8F1
:1007D000F0878B4209D9002D00F0EF800026C5E993
:1007E000000130463146BDE8F087B3FA83F6002EAB
:1007F0004AD18B4202D3824200F2F980841A61EB23
:10080000030301209E46002DE0D0C5E9004EDDE740
:1008100002B9FFDEB2FA82F2002A40F09280A1EB28
:100820000C014FEA1C471FFA8CFE0126200CB1FB7D
:10083000F7F307FB131140EA01410EFB03F0884276
:1008400008D91CEB010103F1FF3802D2884200F203
:10085000CB804346091AA4B2B1FBF7F007FB101195
:1008600044EA01440EFB00FEA64508D91CEB040433
:1008700000F1FF3102D2A64500F2BB800846A4EB8E
:100880000E0440EA03409CE7C6F12007B34022FA79
:1008900007FC4CEA030C20FA07F401FA06F31C43A8
:1008A000F9404FEA1C4900FA06F3B1FBF9F8200CB5
:1008B0001FFA8CFE09FB181140EA014108FB0EF0FB
:1008C000884202FA06F20BD91CEB010108F1FF3A4B
:1008D00080F08880884240F28580A8F10208614457
:1008E000091AA4B2B1FBF9F009FB101144EA014165
:1008F00000FB0EFE8E4508D91CEB010100F1FF3410
:100900006CD28E456AD90238614440EA0840A0FBA7
:100910000294A1EB0E01A142C846A64656D353D07D
:100920005DB1B3EB080261EB0E0101FA07F722FAA1
:1009300006F3F1401F43C5E9007100263146BDE8CA
:10094000F087C2F12003D8400CFA02FC21FA03F32D
:10095000914001434FEA1C471FFA8CFEB3FBF7F0AE
:1009600007FB10360B0C43EA064300FB0EF69E42D3
:1009700004FA02F408D91CEB030300F1FF382FD26C
:100980009E422DD9023863449B1B89B2B3FBF7F614
:1009900007FB163341EA034106FB0EF38B4208D9ED
:1009A0001CEB010106F1FF3816D28B4214D9023E2E
:1009B0006144C91A46EA004638E72E46284605E74C
:1009C0000646E3E61846F8E64B45A9D2B9EB02081D
:1009D00064EB0C0E0138A3E74646EAE7204694E7AD
:1009E0004046D1E7D0467BE7023B614432E73046E0
:1009F00009E76444023842E7704700BF0C4D0D4CD4
:100A000003E02B682360043504340B4B9C42F8D17F
:100A10000A4C02E0002323600434094B9C42F9D1C4
:100A200007F03CFE17F00AFA02F0ECFAFEE700BF0E
:100A300020AF010800000024F8030024F80300247C
:100A4000303D0024FEE780B582B000AF87ED010A9B
:100A500097ED010A15F000F9F0EE407AB0EE670A62
:100A60000837BD4680BD80B582B000AF87ED010A72
:100A700097ED010A15F062F9F0EE407AB0EE670AE0
:100A80000837BD4680BD80B483B000AF78607B6816
:100A900018460C37BD465DF8047B704780B483B0C0
:100AA00000AF78607B6818460C37BD465DF8047B64
:100AB000704780B582B000AF7860786800F007F8C2
:100AC0007B6800221A7300BF0837BD4680BD80B422
:100AD00083B000AF78607B684FF000029A6000BF7F
:100AE0000C37BD465DF8047B7047000080B582B0CE
:100AF00000AF786087ED000AD7ED007A9FED157A98
:100B0000F4EEC77AF1EE10FA01D53B6800E0124B23
:100B10003B60D7ED007A9FED117A67EE877AB0EEF1
:100B2000670A15F005FBF0EE407A7B68C3ED007AAA
:100B30007B68D3ED007AB7EE007A37EE877AF7EE6E
:100B4000006AC6EE877A7B68C3ED017A00BF08377A
:100B5000BD4680BDC976FE3EC976FE3EDB0F4940EC
:100B600080B483B000AF78600B46FB707B68FA7886
:100B70001A7300BF0C37BD465DF8047B704780B424
:100B800083B000AF78600B46FB701346BB707B6888
:100B9000FA781A707B68BA785A707B6818460C37F6
:100BA000BD465DF8047B704780B483B000AF7860C9
:100BB0007B680B221A707B68FF225A707B6818468C
:100BC0000C37BD465DF8047B704780B485B000AF3C
:100BD00078607B681B783B737B685B787B73002352
:100BE0003A7B62F307037A7B62F30F2318461437CC
:100BF000BD465DF8047B704780B483B000AF786079
:100C00007B6800221A607B6800225A607B684FF084
:100C1000FF329A607B6800221A737B6818460C3793
:100C2000BD465DF8047B704780B483B000AF786048
:100C30007B6800221A607B6818460C37BD465DF859
:100C4000047B704780B483B000AF78607B6818463F
:100C50000C37BD465DF8047B704780B483B000AFAD
:100C600078607B6818460C37BD465DF8047B70479A
:100C700080B483B000AF78607B6818460C37BD46FF
:100C80005DF8047B704780B483B000AF78607B6808
:100C900000221A607B6818460C37BD465DF8047B5D
:100CA000704780B483B000AF78607B6800221A6020
:100CB0007B6818460C37BD465DF8047B704780B4EE
:100CC00083B000AF78607B6800221A607B681846AA
:100CD0000C37BD465DF8047B704780B582B000AF2D
:100CE00078607B681846FFF7EAFF7B680433184694
:100CF00000F010F87B6818460837BD4680BD80B408
:100D000083B000AF78607B6818460C37BD465DF84D
:100D1000047B704780B584B000AF78607B6808338F
:100D20001846FFF741FF7B680A331846FFF73CFF80
:100D30007B6800221A607B6801225A6007F1080371
:100D4000082201211846FFF71AFF7B683A891A81A9
:100D500007F10C03092201211846FFF710FF7B68F9
:100D6000BA895A817B685A221A747B6818461037F0
:100D7000BD4680BD80B483B000AF78607B68102230
:100D80001A747B6818460C37BD465DF8047B7047C3
:100D900084B0B0B588B000AF786007F1340080E867
:100DA0000E007B681D1D07F134040FCC28606960BC
:100DB000AA60EB6023782B7407F10C031846FFF749
:100DC000D9FF0023BB617B6BFB60BB6B7B6107F1D1
:100DD000340308331846FFF7F8FE03463B8207F159
:100DE00034030A331846FFF7F0FE03467B827B6824
:100DF00007F10C021146184606F082F80346002B54
:100E000014BF01230023DBB218462037BD46BDE8DE
:100E1000B04004B0704780B586B002AFF860B960EA
:100E20001346FB80F868FB681B7D99B2FB880A2299
:100E30000092BA6806F0FAF80346002B14BF0123AB
:100E40000023DBB218461037BD4680BD80B586B0A2
:100E500002AFF860B9601346FB80F868FB681B7D41
:100E600099B2FB880A220092BA6806F007F9034695
:100E7000002B14BF01230023DBB218461037BD46F8
:100E800080BD80B483B000AF78607B6800221A60B8
:100E90007B6818460C37BD465DF8047B704780B40C
:100EA00083B000AF78607B6800221A607B681846C8
:100EB0000C37BD465DF8047B704780B483B000AF4B
:100EC00078607B6818460C37BD465DF8047B704738
:100ED00080B483B000AF78607B6818460C37BD469D
:100EE0005DF8047B704780B483B000AF78607B68A6
:100EF00018460C37BD465DF8047B704780B483B05C
:100F000000AF78607B6818460C37BD465DF8047BFF
:100F1000704780B483B000AF78607B6818460C37A8
:100F2000BD465DF8047B704780B483B000AF786045
:100F30007B6818460C37BD465DF8047B704780B46B
:100F400083B000AF78607B6818460C37BD465DF80B
:100F5000047B704780B483B000AF78607B681B79F6
:100F6000002B07D07B689B7A7F2B0CBF01230023CB
:100F7000DBB200E0002318460C37BD465DF8047B69
:100F8000704780B483B000AF78607B689B7AFF2B9A
:100F90000CBF01230023DBB218460C37BD465DF8B9
:100FA000047B704780B582B000AF78607B681846DC
:100FB000FFF769FE7B6814331846FFF770FF7B6804
:100FC00018331846FFF784FF7B6820331846FFF775
:100FD00068FE7B6824331846FFF790FF7B68303348
:100FE0001846FFF73AFE7B683C331846FFF749FF87
:100FF0007B6818460837BD4680BD80B582B000AF1B
:1010000078607B6830331846FFF732FE7B68243304
:101010001846FFF77EFF7B6818331846FFF763FF1B
:101020007B6814331846FFF748FF7B68184608377B
:10103000BD4680BD80B487B000AFF86087ED020A7E
:10104000C7ED010A87ED001A97ED017AD7ED007A16
:1010500067EE277A97ED027A77EE277AC7ED057A61
:10106000FB687A699A637B6907EE903AB0EE670A8B
:101070001C37BD465DF8047B7047000080B582B028
:1010800000AF786087ED000A7B683A681A60F7EE77
:10109000006A97ED007AC6EE877A7B68C3ED017A25
:1010A0007B684FF07E529A607B684FF07E52DA6028
:1010B0007B684FF07E521A617B680F4A5A617B68E9
:1010C000D3ED027AB0EE670A786800F04FF97B68DA
:1010D000D3ED037AB0EE670A786800F0B1F97B6867
:1010E000D3ED047AB0EE670A786800F015FA00BF15
:1010F0000837BD4680BD00BFCDCC4C3D80B582B029
:1011000000AF78600B46FB70FB78002B0CD07B683F
:1011100093F8313083F00103DBB2002B04D07B68FD
:10112000012283F830200EE0FB7883F00103DBB26C
:10113000002B08D07B6893F83130002B03D07B68FC
:10114000042283F830207B68FA7883F831207B68AA
:1011500093F83030042B00F2978001A252F823F06C
:10116000751100087F110008D51100082D12000824
:10117000371200087B684FF000025A6389E07B68F1
:10118000D3ED067A7B6893ED097A7B68D3ED0E6A1E
:10119000B0EE661AF0EE470AB0EE670A7868FFF71D
:1011A00049FFF0EE407A7B68C3ED0D7A7B68D3EDA2
:1011B0000D7AB7EE007AF4EEC77AF1EE10FA00DAA3
:1011C00067E07B684FF07E525A637B68022283F8A7
:1011D00030205EE07B68D3ED077A7B6893ED0A7A76
:1011E0007B68D3ED0E6AB0EE661AF0EE470AB0EEF9
:1011F000670A7868FFF71EFFF0EE407A7B68C3ED60
:101200000D7A7B6893ED0D7A7B68D3ED057AB4EEA9
:10121000E77AF1EE10FA00D93BE07B685A697B6807
:101220005A637B68032283F8302032E07B685A6976
:101230007B685A632DE07B68D3ED087A7B6893ED79
:101240000B7A7B68D3ED0E6AB0EE661AF0EE470AB1
:10125000B0EE670A7868FFF7EDFEF0EE407A7B6843
:10126000C3ED0D7A7B68D3ED0D7AF5EEC07AF1EE21
:1012700010FA00D90DE07B684FF000025A637B68DA
:10128000002283F8302004E07B68002283F83020BD
:1012900000BF7B685B6B07EE903AB0EE670A0837D9
:1012A000BD4680BD80B483B000AF78607B689B682A
:1012B00007EE903AB0EE670A0C37BD465DF8047B46
:1012C000704780B483B000AF78607B68DB6807EE5E
:1012D000903AB0EE670A0C37BD465DF8047B704764
:1012E00080B483B000AF78607B681B6907EE903AEA
:1012F000B0EE670A0C37BD465DF8047B704780B4DA
:1013000083B000AF78607B685B6907EE903AB0EE1F
:10131000670A0C37BD465DF8047B704780B483B024
:1013200000AF786087ED000AD7ED007AF5EEC07A5D
:10133000F1EE10FA01D80C4B0CE0D7ED007AB7EEC5
:10134000007AF4EEC77AF1EE10FA02DD4FF07E5328
:1013500000E03B683B607B683A685A6100BF0C372D
:10136000BD465DF8047B70470AD723BC80B584B0C6
:1013700000AF786087ED000A7B683A689A607B6806
:10138000D3ED027AF5EEC07AF1EE10FA01D8294BCE
:101390000DE07B68D3ED027AB2EE047AF4EEC77A00
:1013A000F1EE10FA01DD244B01E07B689B687A685E
:1013B0009360224BFB60D7ED037AB7EE007A37EEED
:1013C000877AD7ED037AC7EE276AB0EE660AFFF791
:1013D0004AFBF0EE407AF1EE676A7B6893ED027AA1
:1013E000C6EE877AC7ED027A7B6893ED017AD7ED76
:1013F000027A67EE277AB0EE670AFFF724FBF0EE79
:10140000407A7B68C3ED097AD7ED037AB7EE007AAC
:1014100037EE877A7B68D3ED097AF7EE006A76EECD
:10142000E77A67EE277A7B68C3ED067A00BF10374C
:10143000BD4680BD6F12833A000020410AD7233C8D
:1014400080B584B000AF786087ED000A7B683A68A9
:10145000DA607B68D3ED037AF5EEC07AF1EE10FA2C
:1014600001D82A4B0DE07B68D3ED037AB2EE047A03
:10147000F4EEC77AF1EE10FA01DD254B01E07B684E
:10148000DB687A68D360234BFB60D7ED037AB7EE55
:10149000007A37EE877AD7ED037AC7EE276AB0EE87
:1014A000660AFFF7E0FAF0EE407AF1EE676A7B68D1
:1014B00093ED037AC6EE877AC7ED027A7B6893EDE7
:1014C000017AD7ED027A67EE277AB0EE670AFFF766
:1014D000BAFAF0EE407A7B68C3ED0A7A7B6893ED46
:1014E000057AD7ED037A37EE677A7B68D3ED0A7A0F
:1014F000F7EE006A76EEE77A67EE277A7B68C3ED4F
:10150000077A00BF1037BD4680BD00BF6F12833A17
:101510000000204186ED4B3D80B584B000AF78607F
:1015200087ED000A7B683A681A617B68D3ED047A1C
:10153000F5EEC07AF1EE10FA01D8284B0DE07B6889
:10154000D3ED047AB2EE0E7AF4EEC77AF1EE10FA29
:1015500001DD234B01E07B681B697A681361214B35
:10156000FB60D7ED037AB7EE007A37EE877AD7EDD6
:10157000037AC7EE276AB0EE660AFFF774FAF0EE58
:10158000407AF1EE676A7B6893ED047AC6EE877A5B
:10159000C7ED027A7B6893ED017AD7ED027A67EEA8
:1015A000277AB0EE670AFFF74EFAF0EE407A7B68D2
:1015B000C3ED0B7AD7ED037AB1EE677A7B68D3ED92
:1015C0000B7AF7EE006A76EEE77A67EE277A7B68A9
:1015D000C3ED087A00BF1037BD4680BD6F12833A55
:1015E0000000704186ED4B3D82B0B0B48FB000AFCB
:1015F000F860B96007F1480181E80C0087ED010A45
:10160000D7ED017A77EEA77AC7ED0D7AD7ED0D7A8F
:1016100067EEA77AC7ED0C7A97ED127AD7ED0C7AC0
:1016200027EE277AD7ED136AD7ED0D7A66EEA77A03
:1016300037EE277AD7ED147A77EE277AC7ED0B7A53
:10164000D7ED127AB8EE007A27EE877AD7ED0C7ACA
:1016500027EE277AD7ED147A77EEA77A77EE277AF6
:10166000C7ED0A7A97ED127AD7ED0C7A27EE277A32
:10167000D7ED136AD7ED0D7A66EEA77A37EE677A63
:10168000D7ED147A77EE277AC7ED097A97ED157AB8
:10169000D7ED0C7A27EE277AD7ED166AD7ED0D7ABB
:1016A00066EEA77A37EE277AD7ED177A77EE277AA4
:1016B000C7ED087AD7ED157AB8EE007A27EE877A6B
:1016C000D7ED0C7A27EE277AD7ED177A77EEA77A3F
:1016D00077EE277AC7ED077A97ED157AD7ED0C7A72
:1016E00027EE277AD7ED166AD7ED0D7A66EEA77A40
:1016F00037EE677AD7ED177A77EE277AC7ED067A55
:10170000F7EE006A97ED0B7AC6EE877AC7ED057A99
:1017100097ED087AD7ED057A67EE277ABB68C3EDB7
:10172000167A97ED077AD7ED057A67EE277ABB68C8
:10173000C3ED177A97ED067AD7ED057A67EE277A2B
:10174000BB68C3ED187ABB684FF07E52DA6497ED40
:101750000A7AD7ED057A67EE277ABB68C3ED147A6B
:1017600097ED097AD7ED057A67EE277ABB68C3ED66
:10177000157AFA68BB68154603F14C040FCC0FC507
:1017800094E8030085E80300F8683C37BD46B0BC28
:1017900002B0704780B483B000AF786087ED000A74
:1017A0007B683A681A607B680C4A5A607B680C4A0E
:1017B0009A607B684FF07E52DA607B6893ED007A26
:1017C000F7EE006AC6EE877A7B68C3ED047A00BF45
:1017D0000C37BD465DF8047B704700BFF4FD343F15
:1017E0000000FA43F0B52DED028B91B004AFF86123
:1017F000FB69D3ED057A37EEA77AFB69D3ED027A60
:1018000067EE277AC7ED0B7AFB69D3ED007AB7EE66
:10181000E77A37EE078BFB6993ED047AD7ED0B7A05
:1018200067EE277AB7EEE77AB0EE005B87EE056BDE
:10183000B0EE460B14F0E0F9B0EE407B28EE077BEB
:10184000F7EEC77BC7ED0A7A022097ED0A0A01F08E
:10185000ABFFB0EE407BF7EEC77BC7ED097AFB69C3
:101860004FF000021A64FB694FF000025A64FB69F2
:101870007A6A9A64FB694FF07E525A63FB6993ED72
:10188000017AD7ED0A6AC6EE877AFB69C3ED0E7A54
:10189000FB697A6ADA63FB69D3ED007AFE69BC46BC
:1018A000FC696D4604F13C030FCB85E80F0004F1A1
:1018B00034030CCBB0EE670AF9696046FFF794FE7B
:1018C00006F14C043D460FCD0FC495E8030084E8B3
:1018D000030000BF3437BD46BDEC028BF0BD80B4C1
:1018E00085B000AF786087ED000A7B683A689A613E
:1018F0007B6893ED167A7B68D3ED067A27EE277A1C
:101900007B68D3ED176A7B68D3ED077A66EEA77A1A
:1019100037EE277A7B68D3ED186A7B68D3ED087AB7
:1019200066EEA77A37EE277A7B68D3ED146A7B6878
:10193000D3ED0A7A66EEA77A37EE677A7B68D3ED45
:10194000156A7B68D3ED0B7A66EEA77A77EE677A35
:101950007B68C3ED097A7B685B6ABB600223FB602E
:10196000FB68002B1FDDFB68013B7A6806339B0098
:1019700013441A687968FB6806339B000B441A60AD
:10198000FB68013B7A6808339B00134404331A68F0
:101990007968FB6808339B000B4404331A60FB68CA
:1019A000013BFB60DCE7BB6807EE903AB0EE670AEC
:1019B0001437BD465DF8047B704780B483B000AF38
:1019C000786087ED000A7B681B6B07EE903AB8EEF3
:1019D000E77AD7ED007A67EE277A7B68C3ED027A63
:1019E00000BF0C37BD465DF8047B704780B582B000
:1019F00000AF786087ED000A7B683A689A60786883
:101A0000FFF7F0FE00BF0837BD4680BD80B582B04D
:101A100000AF786087ED000AD7ED007AF5EEC07A66
:101A2000F1EE10FA02D54FF000033B60D7ED007ADB
:101A3000B7EE007AF4EEC77AF1EE10FA02DD4FF05D
:101A40007E533B60D7ED007AB2EE037A67EE877A79
:101A5000B6EE007A77EE877A7B68C3ED017A786814
:101A6000FFF7C0FE00BF0837BD4680BD80B582B01D
:101A700000AF78607B6808331846FFF755FA7B683B
:101A800018460837BD4680BD80B582B000AF78608B
:101A90007B6808331846FFF752FA7B681846083708
:101AA000BD4680BD80B483B000AF78607B681B7991
:101AB000002B02D07B685B6A00E0002318460C37DD
:101AC000BD465DF8047B704780B582B000AF78609A
:101AD0007B6808331846FFF73DFA03461846083777
:101AE000BD4680BD80B483B000AF78607B68184687
:101AF0000C37BD465DF8047B704780B483B000AFFF
:101B000078607B6818460C37BD465DF8047B7047EB
:101B100080B400AF164B00221A60154B00225A60A9
:101B2000134B00229A60124B4FF0FF32DA60104BD9
:101B300000221A740E4B00225A740D4B00225A6177
:101B40000B4B00229A610A4B0022DA61084B4FF0DE
:101B5000FF321A62064B002283F82420044B002235
:101B600083F8252000BFBD465DF8047B704700BFA9
:101B7000D805002480B58CB000AF3048FFF725F8B9
:101B800003463B802E48FFF720F80346BB802D48D4
:101B9000FFF71BF803463B819FED2B0ABB687A6871
:101BA00039682A4802F052FC2948FFF70EF803462C
:101BB000BB812848FFF709F803463B822648FFF718
:101BC00004F80346BB829FED200A7B693A69F968F5
:101BD000224802F03BFC2248FEF7F7FF03463B8316
:101BE0002048FEF7F2FF0346BB831F48FEF7EDFFD8
:101BF00003463B849FED140A3B6AFA69B9691B48A6
:101C000002F024FC1A48FEF7E0FF0346BB841948A3
:101C1000FEF7DBFF03463B851748FEF7D6FF03467A
:101C2000BB859FED090AFB6ABA6A796A134802F01C
:101C30000DFC00BF3037BD4680BD00BF28890108BC
:101C40002C8901084889010800007A44D004002446
:101C500030890108348901084C890108F8040024FE
:101C6000388901083C8901085089010820050024B1
:101C70004089010844890108548901084805002465
:101C800080B584B000AF3B461846FEF7B5FF002391
:101C90007B6001233B7342F20F73BB6003233B6005
:101CA0003B461946064806F0B3F90649044806F0D3
:101CB00033FA034806F014FA00BF1037BD4680BD62
:101CC000CC050024400D030080B500AF06F0FEFAFD
:101CD0000346034A1360FFF74DFF00BF80BD00BFFE
:101CE0001406002480B582B000AF87ED010A002100
:101CF00097ED010A1E4802F05BF89FED1E0A1C4892
:101D000002F074F900211A4802F028FA002197ED38
:101D1000010A194802F04CF89FED160A164802F025
:101D200065F90121144802F019FA002197ED010A22
:101D3000124802F03DF89FED0F0A104802F056F9E4
:101D400002210E4802F00AFA002197ED010A0C4820
:101D500002F02EF89FED070A094802F047F9032127
:101D6000074802F0FBF900BF0837BD4680BD00BF41
:101D7000140400240000C842400400246C04002421
:101D80009804002480B586B000AF7860274806F03C
:101D9000C9F97861264A7B6852F823307A69D31AE8
:101DA0003B6123497B687A6941F823203B69002B1A
:101DB00030D03B6907EE903AB8EE677ADFED1D6AE6
:101DC000C6EE877AC7ED037AD7ED037A77EEA77A66
:101DD000B7EE007A77EE877A174A7B689B00134448
:101DE000C3ED007A144A7B689B001344D3ED007A5C
:101DF000B3EE047AF4EEC77AF1EE10FACCBF012309
:101E00000023DBB2002B05D00B4A7B689B001344F8
:101E10000A4A1A60084A7B689B0013441B6807EE55
:101E2000903AB0EE670A1837BD4680BDCC05002455
:101E30000406002400401C46040000240000A041C9
:101E400080B588B000AFF860B9607A60F86802F0D9
:101E5000A2F987ED070AB868FFF724FEB861BB69ED
:101E6000002B18D07868FFF78DFF87ED050ABB6956
:101E700007EE903AB8EEE77AD7ED057A67EE277A63
:101E800097ED077A77EE277AC7ED077A97ED070A7D
:101E9000F86802F0ABF800BF2037BD4680BD0000F7
:101EA00080B588B000AFF860B9607A60F86802F079
:101EB00072F987ED070AB868FFF7F4FDB861BB69EE
:101EC000002B22D07868FFF75DFF87ED050AD7ED7C
:101ED000077AB7EEE76AD7ED057AB7EEE77A9FEDB6
:101EE0000E5B27EE055BBB6907EE903AB8EEE77B29
:101EF00025EE077B36EE077BF7EEC77BC7ED077A4B
:101F000097ED070AF86802F071F800BF2037BD4668
:101F100080BD00BFAFF300809A9999999999B93F14
:101F200080B400AF034B00221A6000BFBD465DF8CD
:101F3000047B7047C404002480B400AF034B00222C
:101F40001A6000BFBD465DF8047B7047C8040024DA
:101F500080B582B000AF7860044A7B6813600448A3
:101F600006F0BEF800BF0837BD4680BDC40400249B
:101F7000D005002490B583B000AF78600A4A7B6832
:101F80001360094B1C68094B1B68184602F003F9E3
:101F9000F0EE407AB0EE670A204602F027F800BF64
:101FA0000C37BD4690BD00BFC8040024C404002403
:101FB00080B400AF034B1B681846BD465DF8047B38
:101FC000704700BFC404002480B582B000AF7860C1
:101FD000064801F005FCFFF7A3FFFFF7ADFF04483B
:101FE00006F090F800BF0837BD4680BD388701086D
:101FF000D005002480B582B000AF78600B4801F0B6
:10200000EFFB0B4B00221A600A4B1B680A4A136055
:102010000A4B00221A600A4B00221A60094806F097
:1020200071F800BF0837BD4680BD00BF408701087A
:102030005006002464060024580600245C06002490
:1020400060060024D005002480B584B000AF3B4674
:102050001846FEF7D1FD00237B6001233B7344F655
:102060002063BB6002233B603B461946094805F0EC
:10207000CFFF49F63F41074806F04EF800220649D7
:10208000044806F053F8034806F02AF800BF10375A
:10209000BD4680BDD0050024C91F000880B584B0AE
:1020A00000AF3B461846FEF7A7FD00237B600123E7
:1020B0003B734EF66023BB6001233B603B461946F1
:1020C000094805F0A5FF49F63F41074806F024F806
:1020D00000220649044806F029F8034806F000F8F3
:1020E00000BF1037BD4680BDD4050024F51F000891
:1020F00080B584B000AF786039603868FFF7E4FCE1
:102100000346002B0CD0FFF753FFF860FB68002B51
:1021100003D07868FFF72EFF02E07868FFF718FF1A
:1021200000BF1037BD4680BD80B584B000AFF860F9
:10213000B9607A60B868FFF7C7FC0346002B06D089
:10214000054AFB6813607968044801F054FB00BF3E
:102150001037BD4680BD00BFCC0400244C87010869
:1021600080B584B000AF78603960786802F022F8FA
:1021700087ED030A3868FFF795FCB860BB68002B51
:1021800017D0D7ED037AB7EEE76ABB6807EE903A4F
:10219000B8EEE77B9FED0A5B27EE057B36EE077B0B
:1021A000F7EEC77BC7ED037A97ED030A786801F075
:1021B000ABFF00BF1037BD4680BD00BFAFF300804E
:1021C0009A9999999999B93F80B584B000AF786090
:1021D0003960786801F0FDFF87ED030A3868FFF782
:1021E00061FCB860BB68002B17D0D7ED037AB7EE5F
:1021F000E76ABB6807EE903AB8EEE77B9FED0A5BB3
:1022000027EE057B36EE077BF7EEC77BC7ED037A3B
:1022100097ED030A786801F0EBFF00BF1037BD4669
:1022200080BD00BFAFF300809A9999999999B93F01
:1022300080B584B000AF78603960786802F001F84A
:102240000346FB733868FFF72DFCB860BB68002BB2
:1022500009D0BB68DAB2FB7B1344FB73FB7B1946E6
:10226000786801F07BFF00BF1037BD4680BD80B5A8
:1022700086B000AFF860B960F86801F0EEFF034681
:1022800007EE903AF8EE677AC7ED057AB868FFF77F
:1022900009FC38613B69002B16D03B6907EE903A88
:1022A000F8EEE77A97ED057A77EE277AC7ED057AAB
:1022B000D7ED057AFCEEE77AC7ED017A3B79DBB220
:1022C0001946F86801F0D5FF00BF1837BD4680BD3C
:1022D00080B586B000AFF860B9607A603B600022DC
:1022E00039680D48FFF7ACFD0B4801F054FF87ED4E
:1022F000050A97ED050AF86801F078FE97ED050AE2
:10230000B86801F073FE97ED050A786801F06EFE7B
:1023100000BF1837BD4680BD1404002480B582B0CC
:1023200000AF05F0D3FF38600023FB71074B1B683B
:102330003A68D31A632B04D9044A3B68136001231B
:10234000FB71FB7918460837BD4680BD1406002492
:1023500080B588B000AF87ED010AD7ED017A9FED17
:10236000247A67EE877A9FED237A77EE877AC7ED36
:10237000067AD7ED017A9FED207A67EE877A9FED96
:102380001F7A77EE877AC7ED057AD7ED056A97ED64
:10239000067AC6EE877AC7ED047A0023FB61FB69F3
:1023A0000B2B20DCFB6907EE903AB8EEE77AF2EEF1
:1023B000066AC7EE267AC7ED037AD7ED030A97EDD2
:1023C000040A13F021FDB0EE407AD7ED067A67EEED
:1023D000277A0B4AFB699B001344C3ED007AFB6923
:1023E0000133FB61DBE700BF2037BD4680BD00BF86
:1023F0000000C343000002430000394400007A4358
:102400001C06002480B584B000AF7860396078681D
:1024100002F0B5FA0346FB733868FFF743FBB86078
:10242000BB68002B09D0BB68DAB2FB7B1344FB739B
:10243000FB7B1946786802F080FA00BF1037BD4672
:1024400080BD00000000000080B58CB000AFF860D7
:10245000B9607A603B60B86BFEF793FD0346002BD2
:1024600000F0BC80F868FFF72FFB0346002B04D078
:10247000B7EE000A5E48FEF779FFF868FFF712FB37
:10248000F862FB6A002B1CD05948FEF70BFF87ED62
:102490000A0AD7ED0A7AB7EEE76AFB6A07EE903AC6
:1024A000B8EEE77BB5EE005B27EE057B36EE077BEB
:1024B000F7EEC77BC7ED0A7A97ED0A0A4C48FEF79C
:1024C00055FFB868FFF700FB0346002B04D0B7EEBA
:1024D000000A4748FEF7B4FFB868FFF7E3FA7862EE
:1024E0007B6A002B1CD04248FEF7EBFE87ED080A02
:1024F000D7ED087AB7EEE76A7B6A07EE903AB8EE56
:10250000E77BB5EE005B27EE057B36EE077BF7EE4B
:10251000C77BC7ED087A97ED080A3548FEF790FFAC
:102520007868FFF7D1FA0346002B04D09FED310AFB
:102530002F48FEF7F3FE7868FFF7B4FAF861FB69FD
:10254000002B1CD02A48FEF7DAFE87ED060AD7EDED
:10255000067AB7EEE76AFB6907EE903AB8EEE77BDA
:102560009FED215B27EE057B36EE077BF7EEC77B01
:10257000C7ED067A97ED060A1D48FEF7CFFE3868CC
:10258000FFF7A2FA0346002B04D0B7EE000A184862
:10259000FEF7C2FF3868FFF785FA78617B69002B88
:1025A0001CD01348FEF79CFE87ED040AD7ED047A91
:1025B000B7EEE76A7B6907EE903AB8EEE77BB5EED7
:1025C000005B27EE057B36EE077BF7EEC77BC7ED9A
:1025D000047A97ED040A0648FEF79EFF00BF3037E5
:1025E000BD4680BDAFF300809A9999999999B93FFA
:1025F000900500243333333F80B584B000AF78605A
:102600000023FB73FFF78AFE0346002B12D0A74A74
:102610007B681360A64B1A68A44B1B689A4209D0CA
:10262000A24B1B68A24A13607968A24801F0E3F844
:102630000123FB73A04B1B68002B40F0F3809F48E5
:1026400005F04EFD994B1B689D4A13609C4B1B681F
:102650000B2B00F2D78001A252F823F08D26000840
:1026600019270008A12600088F270008B5260008B2
:10267000C926000805280008DD26000805280008EE
:10268000F12600080528000805270008FB7B002B21
:1026900002D08C4801F0A4F8894B00221A60B8E0FF
:1026A000FB7B002B02D0884801F09AF8844B022271
:1026B0001A60AEE0FB7B002B02D0844801F090F85A
:1026C0007F4B04221A60A4E0FB7B002B02D08048E1
:1026D00001F086F87A4B05221A609AE0FB7B002B0A
:1026E00002D07C4801F07CF8754B07221A6090E01C
:1026F000FB7B002B02D0784801F072F8704B092266
:102700001A6086E0FB7B002B02D0744801F068F869
:102710006B4B0B221A607CE0FB7B002B02D07048D5
:1027200001F05EF8644B01221A606E4B00221A60C1
:102730006C4B1A686C4913469B0013449B000B4476
:102740006A4A1A60674B1A68674913469B0013442C
:102750009B000B44083300221A60624B1A686249DE
:1027600013469B0013449B000B44103300221A7045
:102770005C4B1A685C4913469B0013449B000B4456
:10278000113300221A704E4B01221A6041E0FB7B8C
:10279000002B02D0564801F023F8474B01221A6063
:1027A000504B01221A604F4B1A684F4913469B0049
:1027B00013449B000B444F4A1A604A4B1A684A491B
:1027C00013469B0013449B000B44083300221A60FD
:1027D000444B1A68444913469B0013449B000B4426
:1027E000103300221A703F4B1A683F4913469B0072
:1027F00013449B000B44113300221A70304B032208
:102800001A6006E03C4B01221A702D4B00221A6020
:1028100000BF2B4B1B68394A1360294B1B68384A91
:1028200013603EE1244B1B68012B40F0C4801F4B1A
:102830001B68344A1360334B1B680A2B00F22E814D
:1028400001A252F823F000BF752800089D2A000855
:102850009D2A00089D2A00089D2A00089D2A00083C
:102860007D2800089D2A00080D2900089D2A0008DF
:1028700087290008234B00221A6012E1FB7B002B02
:1028800002D0214800F0ACFF0B4B02221A60154B1E
:102890001A68154913469B0013449B000B440833E8
:1028A00001221A60174B00221A60FAE04C0600243D
:1028B000180000246487010850060024D405002471
:1028C000580600247487010890870108A48701082E
:1028D000C4870108E0870108FC87010818880108FF
:1028E0003488010800060024D8050024E8070024E5
:1028F0004C880108BC07002414000024640600244E
:10290000540600245C060024648801086A4B0222F5
:102910001A606A4B1B68002B17D10022684969486E
:10292000FFF702FC012268496848FFF7FDFB02221D
:1029300067496848FFF7F8FB032267496748FFF7D4
:10294000F3FB674B08221A60ABE0664B1A685B4BDF
:102950001968654813469B0013449B0003440433E5
:102960001960564B00221A605E4B1A685E49134686
:102970009B0013449B000B44083302221A60584BFF
:1029800000221A608DE0FB7B002B02D0574800F03C
:1029900027FF494B02221A60524B1A6852491346CC
:1029A0009B0013449B000B44083303221A604C4BDA
:1029B00000221A6075E0404B1B68022B71D14C4B12
:1029C0001B68BB60BB68032B3AD0BB68032B67DC7A
:1029D000BB68002B03D0BB68012B03D060E0002351
:1029E000BB605EE0FB7B002B02D0424800F0F8FEAB
:1029F0003C4B1A683C4913469B0013449B000B4414
:102A00001B68184601F0D4FC364B1A683649134649
:102A10009B0013449B000B44103301221A70314B6E
:102A20001A68314913469B0013449B000B44113331
:102A300000221A70204B00221A600023BB6030E095
:102A4000FB7B002B02D02C4800F0CAFE254B1A68F5
:102A5000254913469B0013449B000B441B681846F2
:102A600001F0B8FC1F4B1A681F4913469B00134422
:102A70009B000B44103300221A701A4B1A681A4933
:102A800013469B0013449B000B44113301221A7020
:102A9000094B00221A600023BB6002E000BF00E087
:102AA00000BF134B00221A60144BFF221A7000BFA4
:102AB0001037BD4680BD00BF50060024CC04002462
:102AC000D004002414040024F8040024400400244A
:102AD000200500246C0400244805002498040024E8
:102AE0005C06002400060024D80500248488010820
:102AF0004C060024A0880108B888010818060024A4
:102B000080B582B000AF03460A46FB8013467B7156
:102B1000FB88DAB20C4B1A707B7983F00103DBB2CD
:102B2000002B0DD0FB88094A9B001344D3ED007A9B
:102B3000B0EE670A064801F0B7FE064B01221A7094
:102B400000BF0837BD4680BD180600241C060024BF
:102B5000280700241906002480B483B000AF034680
:102B6000FB80064BFF221A70054B00221A7000BF33
:102B70000C37BD465DF8047B704700BF1806002483
:102B800019060024B0B58CB004AF786007F10803D3
:102B9000184600F03DFE7D686C4607F1140393E88B
:102BA000070084E8070007F108030ECB284600F071
:102BB00042FE0346002B0CBF01230023DBB2002B97
:102BC00002D0074800F00CFE0649786800F029F8AA
:102BD0000549786800F033F800BF2037BD46B0BD26
:102BE000D0880108012B0008592B0008B0B582B02D
:102BF00000AF786039607B683A6803F134041546A9
:102C00000FCD0FC40FCD0FC40FCD0FC495E80F002B
:102C100084E80F007868FFF7B5FF00BF0837BD46AE
:102C2000B0BD80B483B000AF786039607B683A682B
:102C30009A6700BF0C37BD465DF8047B704780B4CF
:102C400083B000AF786039607B683A68DA6700BFAC
:102C50000C37BD465DF8047B7047000090B585B029
:102C600000AF78607B68184600F07DFE0346BB81AC
:102C70000023FB81FB890B2B47D8FB89012202FA39
:102C800003F37B81BA897B8913409BB2002B14BF6D
:102C9000012300237B727B68B3F874207B89134087
:102CA0009BB2002B14BF012300233B727B689B6FF8
:102CB000002B14D07B7A002B11D03B7A83F00103D8
:102CC000DBB2002B0BD07B689C6F1448FEF759F9E0
:102CD00003461A46FB8911461846A04711E07B6857
:102CE000DB6F002B0DD03B7A002B0AD07B7A83F070
:102CF0000103DBB2002B04D07B68DB6FFA8910463E
:102D00009847FB890133FB81B4E77B68BA89A3F854
:102D1000742000BF1437BD4690BD00BF700500246D
:102D200080B582B000AF78607B68184600F02DFE59
:102D30007B6834331846FEF735F97B681846083748
:102D4000BD4680BD80B483B000AF78607B68064A22
:102D50005A617B6840F2DC521A637B6818460C3774
:102D6000BD465DF8047B7047DB0F494090B591B0DC
:102D700000AFF860B9607A600023FB63FA6B7B6890
:102D80009A4280F02481944801F082F8F0EE407A73
:102D9000C7ED057A914801F07BF8F0EE407AC7ED77
:102DA000067A8F4801F074F8F0EE407AC7ED077AA2
:102DB0008C4801F06DF8F0EE407AC7ED087A0023F8
:102DC000BB63BB6B012B52DC8749BA6B13469B007C
:102DD00013449B000B441B68002B44D08249BA6B00
:102DE00013469B0013449B000B4404331B68002BC9
:102DF00039D07D49BA6B13469B0013449B000B44AA
:102E000008331B68022B2ED17749BA6B13469B00FF
:102E100013449B000B4419687348BA6B13469B001C
:102E200013449B0003440C331B689B0007F14002D2
:102E300013442C3BD3ED007A6B48BA6B13469B00CE
:102E400013449B0003440C331C68B0EE670A084629
:102E500001F0D2FAF0EE407AA30007F140021344E9
:102E60002C3BC3ED007ABB6B0133BB63A9E797ED45
:102E7000057AD7ED067A37EE277AD7ED077A37EE5F
:102E8000277AD7ED087A77EE277AB5EE007A67EEE3
:102E9000877AC7ED0D7A00233B633B6B012B27DC60
:102EA00051493A6B13469B0013449B000B441B682B
:102EB000002B19D04C493A6B13469B0013449B00DE
:102EC0000B4408331B68012B0ED147493A6B13465C
:102ED0009B0013449B000B441B6897ED0D0A18469A
:102EE00001F08AFA87ED0D0A3B6B01333B63D4E7AF
:102EF00097ED0D0A3D48FEF7F2FC87ED0D0A3C48C0
:102F000001F0B6FB87ED0B0A3A4B1B7819463A489D
:102F1000FEF7F4F8F0EE407AB0EE670A344801F0BC
:102F2000FDFC0023BB62BB6A012B27DC2E49BA6A79
:102F300013469B0013449B000B441B68002B19D0C5
:102F40002949BA6A13469B0013449B000B4408337B
:102F50001B68032B0ED12449BA6A13469B00134405
:102F60009B000B441B6897ED0B0A184601F044FACE
:102F700087ED0B0ABB6A0133BB62D4E797ED0B0AFE
:102F80001E48FEF7ACFC87ED0B0A97ED0B7AD7EDE8
:102F90000D7A77EE277AB6EE007A27EE877A184B0D
:102FA000D3ED007A67EE277AC7ED097AFB6B9B00B9
:102FB000BA6813447A6A1A60FB6B01339B00BA68E3
:102FC00013447A6A1A60FB6B0233FB63D6E600BFD8
:102FD0004437BD4690BD00BF1404002440040024C3
:102FE0006C04002498040024D80500245C08002404
:102FF00028070024190600249005002458070024FF
:1030000018080024B0B5FAB002AFD44801F06AFD48
:103010000021D24801F05EFE0421D04801F082FD7B
:10302000CE4801F07BFD87ED770AFEF729FEFFF71A
:103030000BF8FFF733F897ED770AC948FEF71EF84B
:1030400007F5F073A3F59473C44A1C4615460FCDDB
:103050000FC40FCD0FC40FCD0FC495E80F0084E847
:103060000F0007F1B8031946BE48FFF7BFFD07F18F
:10307000B8031846FDF7C1FFFEF74AFDFEF724FE30
:10308000082001F031FD0346A7F8F8300023009333
:10309000012301229FEDB40AD7F8F810B34803F0DA
:1030A00009F8092001F020FD0346A7F8FC300023B1
:1030B0000093012301229FEDAC0AD7F8FC10AC4825
:1030C00002F0F8FF0F2001F00FFD0346A7F80031D2
:1030D0003B1D0222D7F80011184603F06BF81020B0
:1030E00001F002FD0346A7F804313B1D1233022212
:1030F000D7F80411184603F05DF8112001F0F4FC34
:103100000346A7F808313B1D24330222D7F80811E3
:10311000184603F04FF8122001F0E6FC0346A7F82A
:103120000C313B1D36330222D7F80C11184603F040
:1031300041F8132001F0D8FC0346A7F810313B1DDD
:1031400048330222D7F81011184603F033F8142040
:1031500001F0CAFC0346A7F814313B1D5A33022282
:10316000D7F81411184603F025F8152001F0BCFC1F
:103170000346A7F818313B1D6C330222D7F818110B
:10318000184603F017F8162001F0AEFC0346A7F826
:103190001C313B1D7E330222D7F81C11184603F068
:1031A00009F8172001F0A0FC0346A7F820313B1DC9
:1031B00090330222D7F82011184602F0FBFF1820A6
:1031C00001F092FC0346A7F824313B1DA2330222F2
:1031D000D7F82411184602F0EDFF391D04230A2206
:1031E000644802F0FBFF634803F006FA97ED770AA4
:1031F000FEF778FD97ED770A5F4801F0F1F90221BB
:1032000097ED770A5D4800F0D3FD012197ED770A2D
:103210005B4800F0CDFD5B48FDF74BFC00215948B1
:10322000FDF79EFCB2EE040A5648FDF75FFC97EDF1
:10323000770A5548FEF7AEFA97ED770A5348FEF73E
:10324000A9FA9FED530A5148FEF7D0FB5149434874
:1032500001F060FC504801F045F9504801F042F996
:103260004F4801F03FF94F4801F03CF93F4802F068
:1032700057FF3F4802F054FF3C48FDF782FE0346EB
:10328000002B05D0484B1B78FF2B01D0012300E019
:103290000023002B05D0444B1B781846FFF7ACF9F0
:1032A00081E1424B1B680B2B00F27D8101A252F899
:1032B00023F000BFE532000853350008C133000891
:1032C000953500087D3400089F340008A7350008B4
:1032D00005350008A735000827350008A735000880
:1032E000493500080121324800F0C3FF012131486F
:1032F00000F0BFFF0121304800F0BBFF1C48FDF784
:1033000040FE0346002B14D0002223492B48FEF731
:10331000C7FD012221492648FEF7C2FD02222049AD
:103320002448FEF7BDFD03221E492348FEF7B8FDE1
:1033300039E1002218492148FEF782FD0122174990
:103340001B48FEF77DFD022215491A48FEF778FD5D
:10335000032214491848FEF773FD24E1680600248F
:1033600090050024A806002400007A44700500247B
:10337000800500248006002428070024E807002494
:10338000BC0700243C0800245C08002458070024E3
:1033900000409C466D2D0008D0040024F804002451
:1033A00020050024480500241806002454060024A3
:1033B000400400246C040024980400241404002415
:1033C000684B07F594741D460FCD0FC40FCD0FC485
:1033D00095E8030084E80300634B07F5A8741D46D5
:1033E0000FCD0FC40FCD0FC495E8030084E8030090
:1033F0005E4B07F5BC741D460FCD0FC40FCD0FC437
:1034000095E8030084E80300594B07F5D0741D4686
:103410000FCD0FC40FCD0FC495E8030084E803005F
:10342000544B07F5E4740FCB84E80F0007F5D07414
:1034300007F5BC7207F5A87107F5947007F5E473FA
:1034400000932346FFF700F807F5E4731846FDF7ED
:1034500076FD07F5D0731846FEF716FB07F5BC732B
:103460001846FEF711FB07F5A8731846FEF70CFB8C
:1034700007F594731846FEF707FB94E039493E4878
:10348000FEF76EFE38493D48FEF76AFE37493C4874
:10349000FEF766FE36493B48FEF762FE83E03A4897
:1034A000FDF76FFD0346002B19D000222D4932484D
:1034B000FEF7F6FC304800F06EFE87ED760A97EDD9
:1034C000760A2E4800F092FD97ED760A2C4800F01F
:1034D0008DFD97ED760A2B4800F088FD63E0214BC7
:1034E000284A27492548FEF7F3FE1F492348FEF7DF
:1034F000BEFE1E492248FEF7BAFE1D492148FEF7CE
:10350000B6FE50E017491C48FEF7F2FD16491B486D
:10351000FEF7EEFD15491A48FEF7EAFD1449194871
:10352000FEF7E6FD3FE00F491348FEF781FE0E4926
:103530001248FEF77DFE0D491148FEF779FE0C4951
:103540001048FEF775FE2EE006491048FEF75AFFB8
:1035500029E004490E48FEF737FE03490C48FEF700
:1035600067FE20E0D0040024F80400242005002495
:10357000480500247005002414040024400400249D
:103580006C040024980400248005002428070024EB
:10359000BC07002470497148FEF716FE70496F4859
:1035A000FEF746FE00BF00216E4803F03BF8F0EE48
:1035B000407A9FED6D7A67EE877A6C4BC3ED007AA7
:1035C0000121684803F02EF8F0EE407A9FED667A0C
:1035D00067EE877A664BC3ED007A0221614803F0FB
:1035E00021F8F0EE407A9FED607A67EE877A614BC2
:1035F000C3ED007A03215B4803F014F8F0EE407A43
:103600009FED597A67EE877A5B4BC3ED007A042110
:10361000544803F007F8F0EE407A9FED537A67EED6
:10362000877A564BC3ED007A05214E4802F0FAFF27
:10363000F0EE407A9FED4C7A67EE877A504BC3EDFF
:10364000007A0621474802F0EDFFF0EE407A9FED48
:10365000467A67EE877A4B4BC3ED007A07214148E3
:1036600002F0E0FFF0EE407A9FED3F7A67EE877A56
:10367000454BC3ED007A08213A4802F0D3FFF0EE43
:10368000407A9FED397A67EE877A404BC3ED007A36
:103690000921344802F0C6FFF0EE407A9FED327AFD
:1036A00067EE877A3A4BC3ED007A334BD3ED007A5D
:1036B000B0EE670A374801F0CBF92E4BD3ED007A14
:1036C000B0EE670A334801F0E8F92C4BD3ED007AED
:1036D000B0EE670A3048FEF770F9294BD3ED007A57
:1036E000B0EE670A2C48FEF791F9264BD3ED007A2D
:1036F000B2EE047A67EE877AB0EE670A2748FEF7E3
:103700005CF9214BD3ED007AB0EE670A2348FEF74F
:103710007DF9164BD3ED007AB0EE670AFEF718FE7E
:103720001B4BD3ED007AB3EE047A67EE877AB0EEE6
:10373000670A1B4800F05AFC144BD3ED007AB3EE35
:10374000047A67EE877AB0EE670A044800F04EFC10
:103750001448FFF783FA7DE5D0040024E80700242D
:10376000F8040024800600246666A63F140800249E
:10377000180800241C080024200800242408002421
:10378000280800242C0800243008002434080024D1
:1037900038080024280700245C0800245807002467
:1037A000BC070024A806002480B582B000AF87EDD6
:1037B000010A3860D7ED017AB7EEE77A3B6806EE8A
:1037C000903AB8EEE66BB0EE461BB0EE470B11F048
:1037D00047FFB0EE407BB0EE470B0837BD4680BDDB
:1037E00080B582B000AF7860786802F03FFC00BF1F
:1037F0000837BD4680BD80B582B000AF78603960C3
:103800003968786802F032FC00BF0837BD4680BDD9
:1038100080B582B000AF78607B681846FDF77AFA11
:103820007B680C221A757B6806225A757B681846DD
:103830000837BD4680BD84B0B0B586B002AF7860B1
:1038400007F1240080E80E007B681D4607F1240480
:103850000FCC28606960AA60EB6020682861A388AB
:10386000AB827B6803F118047B686D4603F10C02A0
:1038700092E8030085E803000ECB2046FDF788FAA6
:1038800003461946786800F0A0F863228021786822
:1038900000F0B5F8012004F01BFD00225E217868DD
:1038A00000F0ADF87B68197D7B685B7D1A4678680F
:1038B00000F013F901222B21786800F0A0F8012212
:1038C0002C21786800F09BF80E222D21786800F0FA
:1038D00096F800222E21786800F091F801222F211D
:1038E000786800F08CF805223021786800F087F8BD
:1038F00001223121786800F082F8002232217868B4
:1039000000F07DF800223321786800F078F800227A
:103910003421786800F073F800223521786800F0CF
:103920006EF800225B21786800F069F810225C21B3
:10393000786800F064F820225D21786800F05FF874
:103940008C23FB73FB7B1A465E21786800F057F8E6
:10395000786800F0EBF8034618461037BD46BDE81E
:10396000B04004B0704780B584B000AF78600021EB
:10397000786800F0F3F80346FB81FB89C3F30B037F
:103980009BB218461037BD4680BD80B582B000AFEF
:1039900078607B681846FFF73BFF7B681833184652
:1039A000FDF79BF97B6818460837BD4680BD80B59A
:1039B00082B000AF78607B6818331846FDF79FF936
:1039C0007B6818460837BD4680BD80B483B000AF21
:1039D00078600B46FB707B6893F83020FB781343CC
:1039E000DBB2002B14BF01230023DAB27B6883F81B
:1039F000302000BF0C37BD465DF8047B704780B5B2
:103A000084B000AF78600B46FB701346BB70012397
:103A1000FB735E23BB730023BB81BB7B3B737B6863
:103A2000183307F10C0101221846FDF7F4F903469B
:103A300019467868FFF7C9FF7B68183307F10B0157
:103A400001221846FDF702FA034619467868FFF787
:103A5000BCFFFB785E2B05D0FB78722B04D9FB787A
:103A60007A2B01D80023FB73FB7B002B0CD07B68E7
:103A7000183307F10C0102221846FDF7CCF9034672
:103A800019467868FFF7A1FFFB783B73BB787B731F
:103A90007B68183307F10C0102221846FDF7BBF9C9
:103AA000034619467868FFF790FFFB7B002B10D088
:103AB000BB7B3B73FB7A7B737B68183307F10C018C
:103AC00002221846FDF7A7F9034619467868FFF762
:103AD0007CFF00BF1037BD4680BD80B584B000AF0D
:103AE00078600B46FB701346BB700023FB73FB7BB7
:103AF0000B2B17D8FB7B5B00DBB24133DBB2FA78D0
:103B000019467868FFF77BFFFB7B2133DBB25B0054
:103B1000DBB2BA7819467868FFF771FFFB7B013397
:103B2000FB73E4E700BF1037BD4680BD80B485B0AD
:103B300000AF78607B6893F83030002B01D0012310
:103B400000E00023FB737B68002283F83020FB7BBE
:103B500018461437BD465DF8047B704780B584B0C5
:103B600000AF78600B46FB707B681833F91C0122AC
:103B70001846FDF750F9034619467868FFF725FF08
:103B80007B68183307F10E0102221846FDF75EF933
:103B9000034619467868FFF718FFFB891846103767
:103BA000BD4680BD90B583B000AF7860054C064B34
:103BB0009C4204D02C3C2046FDF79FFFF7E70C37D2
:103BC000BD4690BDC40400241404002480B582B016
:103BD00000AF78607B6834331846FDF70EFA7B68D7
:103BE0001846FFF7E4FE7B6818460837BD4680BDDF
:103BF000B0B582B000AF786039607B68012B40F0CF
:103C000094803B684FF6FF72934240F08E80494BA0
:103C100003241D46002C05DB2846FDF763FF2C35E9
:103C2000013CF7E7444A4549002011F0E3FB4448D2
:103C3000FDF71CFF404A4349414811F0DBFB424875
:103C4000FDF714FF3C4A3F493F4811F0D3FB3F4882
:103C5000FDF70CFF384A3B493C4811F0CBFB3C4890
:103C6000FDF704FF344A3749394811F0C3FB39489E
:103C7000FDF75AF9304A3849364811F0BBFB37484E
:103C8000FDF752F92C4A3449344811F0B3FB34485B
:103C9000FCF7CAFF284A3349314811F0ABFB3248E0
:103CA000FCF7C2FF244A2F492F4811F0A3FB2F48ED
:103CB000FCF7BAFF204A2B492C4811F09BFB2C48FB
:103CC000FDF770F91C4A2B49294811F093FB2A484B
:103CD000FFF726F8184A2949274811F08BFB284896
:103CE000FFF730F82748FDF7FDFE134A264925481F
:103CF00011F080FB2548FDF7F5FE0F4A22492348C5
:103D000011F078FB2248FCF7BEFE0B4A21492048FF
:103D100011F070FB2048FCF7B6FE074A1D491E480B
:103D200011F068FB1D48FFF70DF800BF0837BD46CE
:103D3000B0BD00BF1404002400000024A53B00080F
:103D4000D0040024891A0008F80400242005002467
:103D500048050024700500243F0F0008800500245A
:103D6000CC050024450C0008D0050024D40500240F
:103D700068060024FB0F0008A8060024CD3B0008BD
:103D800058070024BC070024FB1A0008E807002499
:103D90003C0800249D0A00084C0800245C0800240C
:103DA00080B500AF4FF6FF710120FFF721FF80BD06
:103DB00080B584B000AFF86087ED020A0B46FB7156
:103DC000FB68FA799A77FB689B7F022B16D0022B4F
:103DD0001CDC002B02D0012B08D017E0FB68294A1D
:103DE0009A60FB684FF07E525A610FE0FB68264AEA
:103DF0009A60FB684FF07E525A6107E0FB68234AE5
:103E00009A60FB684FF07E525A6100BFFB68BA6847
:103E10001A60F7EE006A97ED027AC6EE877AFB68C1
:103E2000C3ED017AFB6801225A77FB684FF000026C
:103E3000DA60FB6893ED027AFB685B7F07EE903AED
:103E4000F8EEE77A67EE277AB0EE670AF86800F0D6
:103E5000B9F8F0EE407AFB68C3ED047AFB684FF0E6
:103E60007C529A61FB6800221A77FB684FF07E5201
:103E70001A62FB684FF07C525A6200BF1037BD4691
:103E800080BD00BF0000C84200002040000020416B
:103E900080B584B000AF78604FF00003FB607B68B2
:103EA0001B7F032B5AD801A252F823F0BD3E000815
:103EB000D93E0008233F00083B3F00087B68D3ED54
:103EC000037A9FED3E7A67EE877AB0EE670A12F0CA
:103ED0005BF987ED030A45E07B6893ED037A7B6825
:103EE000D3ED067AB4EEE77AF1EE10FA0BD57B68E3
:103EF000D3ED037AB1EE007A67EE877AB7EE007AF7
:103F000077EEC77A0AE07B68D3ED037AB9EE007AE0
:103F100067EE877AB0EE087A77EE877AC7ED037A94
:103F200020E07B68D3ED037A77EEA77AB7EE007ACC
:103F300077EEC77AC7ED037A14E07B6893ED037AD6
:103F40007B68D3ED067AB4EEE77AF1EE10FA02D58B
:103F50004FF07E5300E01A4BFB6003E04FF000038C
:103F6000FB6000BF7B6893ED037A7B68D3ED047A36
:103F700077EE277A7B68C3ED037A7B68D3ED037A0B
:103F8000B7EE007AF4EEC77AF1EE10FA09DD7B683D
:103F9000D3ED037AB7EE007A77EEC77A7B68C3ED8C
:103FA000037A7B6893ED057AD7ED037A67EE277A7B
:103FB000B0EE670A1037BD4680BD00BFDB0FC940B9
:103FC000000080BF80B483B000AF786087ED000A46
:103FD0007B6893ED017AD7ED007A67EE277AB0EE31
:103FE000670A0C37BD465DF8047B704780B582B028
:103FF00000AF786087ED000A7B683A689A607B685A
:104000009B7F022B3ED0022B58DC002B02D0012BD1
:104010001CD053E07B68D3ED027AB3EE047AF4EE61
:10402000C77AF1EE10FA02D57B68314A9A607B6854
:10403000D3ED027A9FED2F7AF4EEC77AF1EE10FA03
:1040400000DC3BE07B682C4A9A6037E07B68D3ED6C
:10405000027A9FED2A7AF4EEC77AF1EE10FA02D5D1
:104060007B68274A9A607B68D3ED027AB1EE047AC6
:10407000F4EEC77AF1EE10FA00DC1FE07B68214A0B
:104080009A601BE07B68D3ED027AB1EE047AF4EE1D
:10409000C77AF1EE10FA02D57B681A4A9A607B68FB
:1040A000D3ED027AB3EE047AF4EEC77AF1EE10FAA9
:1040B00000DC02E07B680E4A9A6000BF7B6893EDEB
:1040C000027A7B685B7F07EE903AF8EEE77A67EE5C
:1040D000277AB0EE670A7868FFF774FFF0EE407A4F
:1040E0007B68C3ED047A00BF0837BD4680BD00BFC2
:1040F0000000A04100007A4400007A44CDCCCC3DC1
:10410000CDCCCC3D0000A04080B483B000AF78603F
:1041100087ED000A7B683A685A617B68D3ED057ABF
:10412000F5EEC07AF1EE10FA03D87B684FF000028A
:104130005A617B68D3ED057AB7EE007AF4EEC77A60
:10414000F1EE10FA00DA03E07B684FF07E525A611C
:1041500000BF0C37BD465DF8047B704780B483B068
:1041600000AF78600B46FB707B68FA781A777B6843
:104170001B7F002B02D17B6800221A777B681B7F94
:10418000022B02D97B6803221A7700BF0C37BD4689
:104190005DF8047B704780B483B000AF78607B68C3
:1041A0009B6807EE903AB0EE670A0C37BD465DF8A3
:1041B000047B704780B483B000AF78607B685B6934
:1041C00007EE903AB0EE670A0C37BD465DF8047B07
:1041D000704780B483B000AF78607B681B6A07EEDD
:1041E000903AB0EE670A0C37BD465DF8047B704725
:1041F00080B483B000AF786087ED000AD7ED007A15
:10420000F5EEC07AF1EE10FA03D87B684FF00002A9
:104210001A627B68D3ED097A97ED007AB4EEE77AFB
:10422000F1EE10FA03DB7B685A6A7B681A627B68DE
:104230001A6A7B685A6100BF0C37BD465DF8047B83
:10424000704780B483B000AF78607B681B7F1846EE
:104250000C37BD465DF8047B704780B483B000AF77
:1042600078607B685B7F18460C37BD465DF8047B41
:10427000704780B582B000AF78600B46FB707B68FA
:10428000FA785A777B685B7F012B02D87B68012222
:104290005A777B685B7F082B02D97B6809225A77A3
:1042A0007B6893ED027A7B685B7F07EE903AF8EECD
:1042B000E77A67EE277AB0EE670A7868FFF782FE42
:1042C000F0EE407A7B68C3ED047A00BF0837BD4644
:1042D00080BD80B584B000AF786087ED000A7B6850
:1042E0004FF07C525A627868FFF7D2FDF0EE407AC8
:1042F000B7EEE77AB6EE006B37EE067BF7EEC77BDC
:10430000C7ED037A97ED007AD7ED037A67EE277A47
:10431000B0EE670A1037BD4680BD80B582B000AFF1
:10432000786087ED000A7B6807EE903AB8EEE77B8D
:10433000D7ED006AB7EEE66AB0EE461BB0EE470B6B
:1043400011F08EF9B0EE407BB0EE470B0837BD465A
:1043500080BD000080B584B000AF786087ED000AB2
:104360007B68124A5A627868FFF792FD87ED030A6C
:1043700097ED037AF2EE086AC7EE267AC7ED037A64
:1043800097ED030A0220FFF7C8FFB0EE407BF7EE7F
:10439000C77BC7ED037A97ED007AD7ED037A67EE16
:1043A000277AB0EE670A1037BD4680BD0000404155
:1043B00080B483B000AF78607B68002283F8292046
:1043C0007B68012283F8282000BF0C37BD465DF8CA
:1043D000047B704780B483B000AF78607B680022B4
:1043E00083F828207B68012283F8292000BF0C373E
:1043F000BD465DF8047B704780B584B000AF78603F
:1044000087ED000A4FF00003FB607B6893F82830CB
:10441000002B07D097ED000A7868FFF75AFF87ED69
:10442000030A0BE07B6893F82930002B06D097ED48
:10443000000A7868FFF78EFF87ED030AFB6807EE36
:10444000903AB0EE670A1037BD4680BD80B588B09F
:1044500002AF78613982BA813B8187ED010A03F0AE
:1044600035FF02467B691A607B6900221A717B69FD
:104470003A8A1A837B6900229A767B690122DA766E
:104480007B69BA899A837B6900229A777B690122CA
:10449000DA777B691833184602F0C8FA7B691C3357
:1044A000184602F0C3FA7B6903F108000023009369
:1044B000012301229FED0A0AB96801F0FBFD7B6927
:1044C00000225A627B69FF2283F821207B6993F8DE
:1044D00021207B6983F8202000BF1837BD4680BDAE
:1044E00000007A4490B585B000AF786003F0EEFE2E
:1044F000F8607B6800221A717B681B68FA689A4230
:1045000050D07B68FA681A607B6801221A717B6858
:1045100093F820305B005CB27B681833184602F0D9
:1045200061FB03465BB223435BB2DAB27B6883F87C
:1045300020207B6893F821305B005CB27B681C33E1
:10454000184602F04FFB03465BB223435BB2DAB27C
:104550007B6883F821207B6800225A627B6893F88D
:10456000203003F00303022B0AD17B6893F821303B
:1045700003F00303002B03D17B6801225A6211E090
:104580007B6893F8213003F00303022B0AD17B6888
:1045900093F8203003F00303002B03D17B684FF026
:1045A000FF325A627B680833184601F0B9FD00BF3C
:1045B0001437BD4690BD80B483B000AF786087EDFE
:1045C000000A7B6893ED027AD7ED007A67EE277ACE
:1045D000B0EE670A0C37BD465DF8047B70470000FB
:1045E00080B582B000AF786087ED000A7B683A68DA
:1045F0005A60F7EE006A97ED007AC6EE877A7B681C
:10460000C3ED027A7B68194ADA607B684FF00002DA
:104610001A617B68D3ED037AB0EE670A7868FFF71A
:10462000CAFFF0EE407A7B68C3ED057A7B684FF0F5
:1046300000029A617B684FF00002DA617B684FF0FC
:1046400000021A627B684FF07C525A627B684FF01E
:104650007C529A627B68012283F82C207B680022BE
:1046600083F82D2000BF0837BD4680BD00001643EB
:1046700080B58EB000AF786010237B627B684FF00E
:104680000002DA617B684FF000021A627B68D3EDAA
:10469000047AB0EE670A10F0B3FE87ED080A7B6873
:1046A000D3ED047AB0EE670A11F06EFD87ED070ACC
:1046B0003B6A7B63FB693B634FF08043FB627B6A31
:1046C00007EE903AF8EEE77A97ED0B7AB4EEE77AD8
:1046D000F1EE10FA57D87B6B3B6197ED0D7AD7ED71
:1046E000087A27EE277AD7ED0C6AD7ED077A66EEBF
:1046F000A77A77EE677AC7ED0D7A97ED047AD7ED52
:10470000077A27EE277AD7ED0C6AD7ED087A66EE9E
:10471000A77A77EE277AC7ED0C7A97ED0B0A7868BF
:1047200000F03AF987ED030A7B6893ED087AD7ED3C
:10473000036AD7ED0C7A66EEA76A7B68D3ED0A7A36
:1047400066EEA77A77EE277A7B68C3ED087A7B68F6
:1047500093ED077AD7ED036AD7ED0D7A66EEA76A77
:104760007B68D3ED097A66EEA77A77EE277A7B68C5
:10477000C3ED077AD7ED0B7AB7EE007A77EE877A3A
:10478000C7ED0B7A9BE77B6893ED077A7B68D3EDE7
:10479000096AD7ED087A66EEA77A77EE277A7B6802
:1047A000C3ED077A7B6893ED087A7B68D3ED0A6ADC
:1047B000D7ED077A66EEA77A77EE277A7B68C3EDA6
:1047C000087A7B6893ED077A7B68D3ED087A77EEF9
:1047D000277AF0EEE77AC7ED067AD7ED067AB7EEDC
:1047E000007AF4EEC77AF1EE10FA1BDDF7EE006AFC
:1047F00097ED067AC6EE877AC7ED057A7B6893ED6A
:10480000077AD7ED057A67EE277A7B68C3ED077ADA
:104810007B6893ED087AD7ED057A67EE277A7B6897
:10482000C3ED087A7B6893ED077A7B68D3ED087A4D
:1048300077EE277AC7ED0A7AD7ED0A7AB7EE007AD3
:10484000F4EEC77AF1EE10FA02DD4FF07E53BB6250
:104850007B6893ED047A7B68D3ED057A77EE277A4F
:104860007B68C3ED047A7B68D3ED047AB7EE007AF7
:10487000F4EEC77AF1EE10FA09DD7B68D3ED047A25
:10488000B7EE007A77EEC77A7B68C3ED047A7B686F
:1048900093ED067AD7ED0A7A67EE277AB0EE670ACB
:1048A0003837BD4680BD000080B582B000AF78606B
:1048B00087ED000A7B683A68DA607B68D3ED037A9B
:1048C000B2EE067AF4EEC77AF1EE10FA02D57B6802
:1048D0000F4ADA607B68D3ED037A9FED0E7AF4EE2F
:1048E000C77AF1EE10FA02DD7B680B4ADA607B686A
:1048F000D3ED037AB0EE670A7868FFF75CFEF0EE5E
:10490000407A7B68C3ED057A00BF0837BD4680BD9D
:104910000000304100007A4400007A4480B483B043
:1049200000AF786087ED000A7B683A689A6100BF43
:104930000C37BD465DF8047B704780B483B000AF90
:1049400078600B46FB707B68FA7883F82C207B68D4
:1049500093F82C30002B03D17B68002283F82C20A5
:104960007B6893F82C30022B03D97B68032283F8F1
:104970002C2000BF0C37BD465DF8047B704780B427
:1049800083B000AF78607B6893F82C3018460C3702
:10499000BD465DF8047B704780B584B000AF786099
:1049A00087ED000A4FF00003FB60D7ED007AFDEEC3
:1049B000E77A17EE903ABB60D7ED007AF5EE407AD1
:1049C000F1EE10FA02D14FF07E533B607B6893F812
:1049D0002C30032B29D801A252F823F0ED4900080E
:1049E000FF4900080D4A0008154A0008F7EE006A62
:1049F00097ED007AC6EE877AC7ED037A1EE097ED51
:104A0000000A11F0C1FB87ED030A17E04FF07E5357
:104A1000FB6013E0BB6803F00103002B01D10B4BDB
:104A200001E04FF07E53FB6008E0F7EE006A97ED7F
:104A3000007AC6EE877AC7ED037A00BFFB6807EEFF
:104A4000903AB0EE670A1037BD4680BD000080BFC7
:104A500080B483B000AF786087ED000AD7ED007AAC
:104A6000F5EEC07AF1EE10FA02D84FF000030CE038
:104A7000D7ED007AB7EE007AF4EEC77AF1EE10FACD
:104A800002DD4FF07E5300E03B687A68536200BF5E
:104A90000C37BD465DF8047B704780B483B000AF2F
:104AA000786087ED000AD7ED007AF5EEC07AF1EE76
:104AB00010FA02D84FF000030CE0D7ED007AB7EE01
:104AC000007AF4EEC77AF1EE10FA02DD4FF07E5371
:104AD00000E03B687A68936200BF0C37BD465DF822
:104AE000047B7047704700BF202882B009D8084B6C
:104AF00003EB400213F81030507843EA002002B074
:104B0000704701230C2043EA002002B0704700BF29
:104B100058890108143001F009BA00BF143001F0BF
:104B200001BA00BF38B500F1140504462DED028B23
:104B3000284601F0E9F9284601F0F4F92846B0EEDC
:104B4000408A01F0DDF9D0ED007AF8EE677A88EE60
:104B5000277ABDEC028B84ED0E7A38BD10B540F299
:104B600003338EB000244FF60B7240F20341ADF8D0
:104B7000083009A80123ADF81020ADF82420224602
:104B8000ADF80C100094029907940C94CDE90544FB
:104B9000CDE90A4401F04EFE04A801232246039900
:104BA000009401F047FE09A801F02AFF10B9012086
:104BB0000EB010BD04A801F023FFA0420CBF0220DC
:104BC00020460EB010BD00BF2DE9F04103239AB07E
:104BD000012700240646CDE914373B4BCDE91043AD
:104BE00040F20453CDE91647ADF84830FFF7B6FF61
:104BF000B842054625D0022845D040F60132334B55
:104C00000DF12C081894ADF82C200B981997CDF8BD
:104C10004A3000F0E3F810A906F13C0002F060FF12
:104C2000302003224FF07E5341460D930E93CDE981
:104C30000B02F26B06F1140001F02AF91AB0BDE87C
:104C4000F0811023214A06A906908DF828300DF135
:104C50002C081F4BCDF84A2007930294CDE9180485
:104C6000CDE9080402A802F04BF90823029A03A92F
:104C70004046ADF80C508DF80E40049505930B940A
:104C800000F0ECF8C7E700200121104B0DF12C08D3
:104C90003A460094CDF84A304FF60B730C94ADF8B9
:104CA0002C302346CDE9180140F601314046ADF8DD
:104CB00018100699CDE90D4401F0BCFD214640468F
:104CC00001F0AAFEA7E700BF0402040404060403DF
:104CD0000704010B2DE9F04704462DED028B82B04D
:104CE00000294DD0012140F2011200230091ADF8BE
:104CF00004208DF80630364A0127364B04F10409AA
:104D0000354904F12908626040F20272A36040F65E
:104D10000663E16004F1250AA4F82520A4F82930EF
:104D2000278284F8277084F82B7003F06DFC054609
:104D300003F0D0FA6946064650BB4DB304F130008B
:104D40008DF8067003F0E8FB072D3CD104F1140543
:104D50002046FFF739FF284601F0E4F82846B0EE78
:104D6000408A01F0CDF8D0ED007AF8EE677A88EE4F
:104D7000277A84ED0E7A02B0BDEC028BBDE8F08795
:104D800040F2011300918DF80610ADF80430B2E73F
:104D900004F1300003F0C0FB072D11D04946204636
:104DA00002F01EFB0EB9002DD0D1504601F03EFEA0
:104DB000404601F03BFE04F1120000F079F9C5E72E
:104DC000002EF2D1C2E74946204602F009FBBDE7BA
:104DD0000508050905070506050A060610B584B08D
:104DE00003460124ADF8040003A8ADF80C30ADF87B
:104DF0000E4001F01BFE214603A801F001FF2046F2
:104E000003F066FA002103A801F0FAFE204603F041
:104E10005FFA214603A801F0F3FE04B010BD00BF05
:104E200010B5C2F3002384B00C46017C8DF80D2030
:104E300043EA4402FA2402238DF80C2003AA0094CA
:104E400002F0F4F818B10124204604B010BD044665
:104E50000A2003F03DFA204604B010BD034670B5A9
:104E600043F8042B044684B007C983E80700A379FC
:104E700083B91A210B461E22FA2523742046ADF869
:104E80000C20022303AA009502F0D0F828B10120DB
:104E900004B070BD1B210B46EDE70A2003F018FAA1
:104EA0004FF4B85200950223ADF80C20204603AA17
:104EB000217C02F0BBF80028E9D10A2003F008FAAF
:104EC00041F2027200950223ADF80C20204603AA9D
:104ED000217C02F0ABF80028D9D10A2003F0F8F9C0
:104EE000042200950223ADF80C20204603AA217C61
:104EF00002F09CF80028CAD10A2003F0E9F9062242
:104F000000950223ADF80C20204603AA217C02F074
:104F10008DF80028BBD10A2003F0DAF941F208220B
:104F200000950223ADF80C20204603AA217C02F054
:104F30007DF80028ABD10A20064603F0C9F9009598
:104F4000022303AA217C2046ADF80C6002F06EF823
:104F500000289CD1304603F0BBF9009522790C2340
:104F60002046002A8DF80C3003AA4FF0020314BF2C
:104F7000622142218DF80D10217C02F057F80028A3
:104F800085D1304603F0A4F92279D4E902310B43EC
:104F9000DBB20AB943F0400362790AB143F020035F
:104FA0000E22FA258DF80D302046009502238DF84B
:104FB0000C2003AA217C02F039F800287FF467AFA7
:104FC0000A2003F085F9102200950223ADF80C2089
:104FD000204603AA217C02F029F800287FF457AF6D
:104FE0000A2003F075F9122100950223ADF80C1088
:104FF00003AA217C204602F019F800287FF447AF6D
:105000000A2003F065F9012209212046FFF708FF75
:10501000003818BF01203BE7F0B5102387B0234CC0
:10502000012200250126002702A920460195CDE98D
:1050300002234FF48052CDE904670AF0DBFA6420C2
:1050400003F09EFD02A94FF480522046CDE904678B
:1050500002261027CDE902670AF0CCFA03221023BA
:1050600002A92046CDE9022300230422CDE904232E
:105070004FF480520AF0BEFA40F23223042202A911
:10508000019310232046CDE90223019A01230592C2
:105090004FF4805204930AF0ADFA40F60601204620
:1050A0000AF0C8FA284607B0F0BD00BFC8080024BF
:1050B0001C4B00221C494FF0400C30B5054689B00E
:1050C0000220596007219A601A620124DA620A22DA
:1050D0004FF4006EDC6006922022CDE9000104202E
:1050E0000821CDE9020103201021CDE904010820A7
:1050F0006946C3E904024FF4C072181DC3E906C231
:105100004FF48052C3E909E20AF04AFA38B9284656
:10511000FFF782FF003818BF012009B030BD2046DC
:1051200009B030BDC408002440410052614A00214A
:10513000D0B513688EB00A91002B40F0B9805E4B59
:1051400001214FF683700C2411600221D3F8D42082
:105150000026032742F48052C3F8D420D3F8D42089
:1051600002F480520092009AD3F8E02042F010023C
:10517000C3F8E020D3F8E02002F010020192019A77
:10518000D3F8E02042F04002C3F8E020D3F8E0205A
:1051900002F040020292029AD3F8E02042F00802A4
:1051A000C3F8E020D3F8E02002F008020392039A4B
:1051B000D3F8E02042F48072C3F8E020D3F8E02076
:1051C00002F480720492049AD3F8E02042F0800244
:1051D000C3F8E020D3F8E02002F080020592059A9F
:1051E000D3F8E02042F02002C3F8E020D3F8E0201A
:1051F00002F020020692069AD3F8E02042F0040260
:10520000C3F8E020D3F8E0300C9403F004030793D4
:105210000323079A0B93CDE9080108A9274805F055
:1052200035FB48F23712022308A925480C94CDE932
:105230000823CDE90A6705F029FB4CF2037202232B
:1052400008A920480C94CDE90823CDE90A6705F0A8
:105250001DFB40F2FF62022308A91B480C94CDE914
:105260000823CDE90A6705F011FB4FF60C72022303
:1052700008A916480C94CDE90823CDE90A6705F082
:1052800005FB4FF63F02022308A911480C94CDE913
:105290000823CDE90A6705F0F9FA2022022308A9BC
:1052A0000A480C94CDE90A67CDE9082305F0EEFA27
:1052B0000EB0D0BDC00800240044025800100258AF
:1052C00000180258000C025800200258001C025816
:1052D000001402582DE9F04FDFF8108406460D4601
:1052E000144608F118002DED028B89B000AF02F0D2
:1052F000EFFCD8F8183073B3D8F81C30D8F8049005
:10530000002B43690BBF4FF0080A4FF0100A4FF013
:10531000020B4FF0040BB9F1000F2AD0A200EA46AD
:10532000012B02F1070222F00702ADEB020D6846E5
:10533000ADEB020D694600F03F81022B00F0D680F4
:10534000002B6FD02246C847D5462437BD46BDEC5A
:10535000028BBDE8F08FD8F81C30002BF5D0D8F8C0
:1053600004904FF0080A4FF0020B4369B9F1000FA7
:10537000D4D1FB61D8F80030BB61002BE5D0D54813
:1053800002F018FD6B46BBF1020F786108EE103A8F
:10539000FB6900F083816A465146A2EBC402954640
:1053A0006200EA46B2FBFBF2AAEBC40085460AEBB8
:1053B0008200EE46F861ADEB010DF8690EEB820C50
:1053C000C7F810C0EC46ADEB010D00EB8201CCF844
:1053D0000400CCF8081001EB82013869E946CCF8EA
:1053E0000C1000EB8201CCF800A001EB8202C9E9AD
:1053F00000E0C9E90212012B00F06483022B00F0E7
:105400006C82002B00F08081620849466046BB69CF
:10541000984718EE103A24379D46BD46BDEC028BE6
:10542000BDE8F08F002C8DD01A46D8ED0C6A9FEDA8
:10543000B27A8446331D36F922E00CF1080C07EEEF
:1054400090EA33F922E00232F8EEE77A944267EE0E
:10545000877A67EEA67A4CED027A07EE90EAF8EECC
:10546000E77A67EE877A67EEA67A4CED017AE2D8A2
:10547000F9612246C847984ED8ED0D6A0020F969B7
:105480002B1D9FED9E7A9FED9E6ADFED9E5A22E0D6
:10549000F4EEC67AF1EE10FAC0F2C88447F6FE7256
:1054A000D1ED017A45F8202066EEA77AF4EEC77AAE
:1054B000F1EE10FA40F2F080F4EEC67AF1EE10FA56
:1054C000C0F2D58447F6FE7243F82020023008313E
:1054D00084427FF639AFD1ED007A66EEA77AF4EE1A
:1054E000C77AF1EE10FAD3D83246D9E7002C3FF450
:1054F00029AFD8ED0C6A84469FED787A0022331DDF
:105500008E4656F822100CF1080C07EE901A53F84C
:1055100022100232F8EEE77A944267EE877A67EE5D
:10552000A67A4CED027A07EE901AF8EEE77A67EE6B
:10553000877A67EEA67A4CED017AE2D87146224668
:10554000C7F81CE0C847664ED8ED0D6A0020F9691F
:105550002B1D9FED6A7A9FED6A6ADFF894C120E007
:10556000F4EEC67AF1EE10FAC0F279843246D1ED4B
:10557000017A45F8202066EEA77AF4EEC77AF1EEBC
:1055800010FA40F28780F4EEC67AF1EE10FAC0F21B
:105590005E84324643F820200230083184427FF690
:1055A000D3AED1ED007A66EEA77AF4EEC77AF1EECB
:1055B00010FAD5D86246DAE7002C3FF4C3AED8ED36
:1055C0000C6A86469FED477A4FF0000C331D56F863
:1055D0002C200EF1080E82F40002A2F5000207EE64
:1055E000902A53F82C200CF1020CF8EEE77A82F4A2
:1055F00000026445A2F5000267EE877A67EEA67A9C
:105600004EED027A07EE902AF8EEE77A67EE877A97
:1056100067EEA67A4EED017AD9D8F9612246C847DD
:10562000314ED8ED0D6A0020F9692B1D9FED337ABC
:105630009FED336ADFF8BCC01FE0F4EEC67AF1EEEE
:1056400010FAC0F2FC833246D1ED017A45F82020F1
:1056500066EEA77AF4EEC77AF1EE10FA18D9F4EEF6
:10566000C67AF1EE10FAC0F2DA83324643F820200F
:105670000230083184427FF667AED1ED007A66EEE3
:10568000A77AF4EEC77AF1EE10FAD6D86246DBE7D5
:105690006246EBE762467DE7324615E7A100D64653
:1056A0006208073121F00701ADEB010DEA46ADEBD1
:1056B000010D6946ADEB0E0D0AEB8200EC46ADEB39
:1056C0000E0D01EB8202F861E946CCE900A0C9E9C0
:1056D000001290E6180900240280FFFF000000304D
:1056E0000082FF7F0000003482FF7F00FC0800245E
:1056F000007E00807E0080FF0000003804FF7FBF36
:1057000004FF7F3F00FEFF46002C00F0C982BBF182
:10571000020FD8F8242000F0FA827969C7F80490C3
:1057200002EB810E5FED0C5A8A00DCF808100EF1D6
:1057300004007A611A46DCF80C303B61331DD7F85F
:1057400010903D61FD69C7E902CB8C46834636F96E
:105750002210D8ED0C7A06EE101A33F9221006EE5C
:10576000901A3EF92210B8EEC66A07EE101AF8EE4B
:10577000E66A3BF92210B8EEC77A26EE256A66EE95
:10578000A56A27EE257A26EE276A66EEA76A27EE37
:10579000277A07EE901A51080232F8EEE77A0AEB00
:1057A0008100944280ED006A05EB810067EEA57AE6
:1057B000C0ED006A0CEB810009EB810180ED007AFD
:1057C00098ED0C7A67EE877AC1ED007ABFD8D7F8EA
:1057D00004903D69D7E902CB60466208BB6949463F
:1057E0009847D8F82C307A69D8ED0D6A1A441FED25
:1057F0003D7A1FED3D6A2B1D904602F1040A5FEDD4
:105800003F5A0022A84ED9E900EC51E0F4EEC67AE6
:10581000F1EE10FAC0F2C78247F6FE7045F822009A
:105820000CEB0100D0ED007A66EEA77AF4EEC77AB1
:10583000F1EE10FA4BD9F4EEC67AF1EE10FAC0F29E
:10584000BA8247F6FE70BBF1020F43F822002BD05C
:10585000D9F808000844D0ED007A66EEA77AF4EE95
:10586000C77AF1EE10FA36D9F4EEC67AF1EE10FAF4
:10587000C0F2CD8247F6FE7048F82200D9F80C003D
:105880000144D1ED007A66EEA77AF4EEC77AF1EE24
:1058900010FA1ED9F4EEC67AF1EE10FAC0F2AF8219
:1058A00047F6FE714AF82210023294427FF6B1ADFB
:1058B00051080EEB81008900D0ED007A66EEA77AE0
:1058C000F4EEC77AF1EE10FAA0D83046A6E73046DB
:1058D000B9E73146E6E73046CEE7002C00F0E0813C
:1058E000BBF1020FD8F8243000F0E1817A69DCF8CE
:1058F000081003EB820EC7F804909300DFED6B5A9B
:105900000EF1040000227B61DCF80C303B61331D9A
:10591000D7F810903D61FD69C7E902CB8C468346FC
:1059200056F82210D8ED0C7A07EE101A53F8221010
:10593000B8EEC76A07EE101A5EF82210F8EEC76AD2
:1059400007EE101A26EE256A5BF82210B8EEC77A29
:1059500066EEA56A26EE276A27EE257A66EEA76A26
:1059600027EE277A07EE901A51080232F8EEE77A0E
:105970000AEB8100944280ED006A05EB810067EE3E
:10598000A57AC0ED006A0CEB810009EB810180ED86
:10599000007A98ED0C7A67EE877AC1ED007ABFD86D
:1059A000D7F804903D69D7E902CB60466208BB692D
:1059B00049469847D8F82C307A69D8ED0D6A1A44D0
:1059C0009FED3E7A9FED3E6A131D9246DFF8E4C0DC
:1059D0000022FB612B1D364ED9E9008E4EE0F4EE1D
:1059E000C67AF1EE10FAC0F2FC81304645F822008A
:1059F0000EEB0100D0ED007A66EEA77AF4EEC77ADE
:105A0000F1EE10FA49D9F4EEC67AF1EE10FAC0F2CE
:105A1000EF813046BBF1020F43F822002AD0D9F8BB
:105A200008000844D0ED007A66EEA77AF4EEC77A53
:105A3000F1EE10FA35D9F4EEC67AF1EE10FAC0F2B2
:105A4000C98130464AF82200D9F80C000144D1ED52
:105A5000007A66EEA77AF4EEC77AF1EE10FA1ED954
:105A6000F4EEC67AF1EE10FAC0F2AD813146F86973
:105A700040F82210023294427FF6CBAC510808EB7A
:105A800081008900D0ED007A66EEA77AF4EEC77A3D
:105A9000F1EE10FAA3D86046A8E76046BAE761467F
:105AA000E5E76046CEE700BF0280FFFF0000003060
:105AB0000082FF7F007E00800000003404FF7FBF73
:105AC00004FF7F3F002C00F0EB807A690021D8F8BA
:105AD0002430C7F8109003EB820ED7F81C90930087
